{
  "_format": "hh-sol-artifact-1",
  "contractName": "ERC20Bounty",
  "sourceName": "src/ERC20.sol",
  "abi": [
    {
      "inputs": [
        {
          "internalType": "address",
          "name": "initialOwner",
          "type": "address"
        },
        {
          "internalType": "address",
          "name": "tokenAddress",
          "type": "address"
        }
      ],
      "stateMutability": "nonpayable",
      "type": "constructor"
    },
    {
      "inputs": [],
      "name": "BountyAlreadyPaid",
      "type": "error"
    },
    {
      "inputs": [],
      "name": "InsufficientContractBalance",
      "type": "error"
    },
    {
      "inputs": [],
      "name": "InvalidBounty",
      "type": "error"
    },
    {
      "inputs": [],
      "name": "InvalidBountyAmount",
      "type": "error"
    },
    {
      "inputs": [],
      "name": "InvalidTokenAddress",
      "type": "error"
    },
    {
      "inputs": [
        {
          "internalType": "address",
          "name": "owner",
          "type": "address"
        }
      ],
      "name": "OwnableInvalidOwner",
      "type": "error"
    },
    {
      "inputs": [
        {
          "internalType": "address",
          "name": "account",
          "type": "address"
        }
      ],
      "name": "OwnableUnauthorizedAccount",
      "type": "error"
    },
    {
      "inputs": [],
      "name": "TokenTransferFailed",
      "type": "error"
    },
    {
      "inputs": [],
      "name": "Unauthorized",
      "type": "error"
    },
    {
      "anonymous": false,
      "inputs": [
        {
          "indexed": false,
          "internalType": "bytes32",
          "name": "bountyId",
          "type": "bytes32"
        },
        {
          "indexed": true,
          "internalType": "address",
          "name": "creator",
          "type": "address"
        },
        {
          "indexed": false,
          "internalType": "uint256",
          "name": "amount",
          "type": "uint256"
        }
      ],
      "name": "BountyCreated",
      "type": "event"
    },
    {
      "anonymous": false,
      "inputs": [
        {
          "indexed": false,
          "internalType": "bytes32",
          "name": "bountyId",
          "type": "bytes32"
        },
        {
          "indexed": true,
          "internalType": "address",
          "name": "winner",
          "type": "address"
        },
        {
          "indexed": false,
          "internalType": "uint256",
          "name": "amount",
          "type": "uint256"
        }
      ],
      "name": "BountyPaid",
      "type": "event"
    },
    {
      "anonymous": false,
      "inputs": [
        {
          "indexed": true,
          "internalType": "address",
          "name": "previousOwner",
          "type": "address"
        },
        {
          "indexed": true,
          "internalType": "address",
          "name": "newOwner",
          "type": "address"
        }
      ],
      "name": "OwnershipTransferred",
      "type": "event"
    },
    {
      "inputs": [
        {
          "internalType": "uint256",
          "name": "amount",
          "type": "uint256"
        }
      ],
      "name": "createBounty",
      "outputs": [
        {
          "internalType": "bytes32",
          "name": "",
          "type": "bytes32"
        }
      ],
      "stateMutability": "nonpayable",
      "type": "function"
    },
    {
      "inputs": [],
      "name": "decimals",
      "outputs": [
        {
          "internalType": "uint8",
          "name": "",
          "type": "uint8"
        }
      ],
      "stateMutability": "view",
      "type": "function"
    },
    {
      "inputs": [
        {
          "internalType": "bytes32",
          "name": "bountyId",
          "type": "bytes32"
        }
      ],
      "name": "getBountyInfo",
      "outputs": [
        {
          "internalType": "address",
          "name": "creator",
          "type": "address"
        },
        {
          "internalType": "uint256",
          "name": "amount",
          "type": "uint256"
        },
        {
          "internalType": "bool",
          "name": "isPaid",
          "type": "bool"
        }
      ],
      "stateMutability": "view",
      "type": "function"
    },
    {
      "inputs": [],
      "name": "owner",
      "outputs": [
        {
          "internalType": "address",
          "name": "",
          "type": "address"
        }
      ],
      "stateMutability": "view",
      "type": "function"
    },
    {
      "inputs": [
        {
          "internalType": "bytes32",
          "name": "bountyId",
          "type": "bytes32"
        },
        {
          "internalType": "address",
          "name": "winner",
          "type": "address"
        }
      ],
      "name": "payBounty",
      "outputs": [],
      "stateMutability": "nonpayable",
      "type": "function"
    },
    {
      "inputs": [],
      "name": "renounceOwnership",
      "outputs": [],
      "stateMutability": "nonpayable",
      "type": "function"
    },
    {
      "inputs": [],
      "name": "symbol",
      "outputs": [
        {
          "internalType": "string",
          "name": "",
          "type": "string"
        }
      ],
      "stateMutability": "view",
      "type": "function"
    },
    {
      "inputs": [],
      "name": "token",
      "outputs": [
        {
          "internalType": "contract IERC20",
          "name": "",
          "type": "address"
        }
      ],
      "stateMutability": "view",
      "type": "function"
    },
    {
      "inputs": [
        {
          "internalType": "address",
          "name": "newOwner",
          "type": "address"
        }
      ],
      "name": "transferOwnership",
      "outputs": [],
      "stateMutability": "nonpayable",
      "type": "function"
    },
    {
      "inputs": [
        {
          "internalType": "uint256",
          "name": "amount",
          "type": "uint256"
        },
        {
          "internalType": "address",
          "name": "recipient",
          "type": "address"
        }
      ],
      "name": "withdraw",
      "outputs": [],
      "stateMutability": "nonpayable",
      "type": "function"
    }
  ],
  "bytecode": "0x60c060405234801561001057600080fd5b50604051611c00380380611c008339818101604052810190610032919061038b565b81600073ffffffffffffffffffffffffffffffffffffffff168173ffffffffffffffffffffffffffffffffffffffff16036100a55760006040517f1e4fbdf700000000000000000000000000000000000000000000000000000000815260040161009c91906103da565b60405180910390fd5b6100b48161025560201b60201c565b50600073ffffffffffffffffffffffffffffffffffffffff168173ffffffffffffffffffffffffffffffffffffffff160361011b576040517f1eb00b0600000000000000000000000000000000000000000000000000000000815260040160405180910390fd5b8073ffffffffffffffffffffffffffffffffffffffff1660808173ffffffffffffffffffffffffffffffffffffffff16815250508073ffffffffffffffffffffffffffffffffffffffff1663313ce5676040518163ffffffff1660e01b8152600401602060405180830381865afa15801561019a573d6000803e3d6000fd5b505050506040513d601f19601f820116820180604052508101906101be919061042e565b60ff1660a08160ff16815250508073ffffffffffffffffffffffffffffffffffffffff166395d89b416040518163ffffffff1660e01b8152600401600060405180830381865afa158015610216573d6000803e3d6000fd5b505050506040513d6000823e3d601f19601f8201168201806040525081019061023f91906105bc565b6001908161024d9190610826565b5050506108f8565b60008060009054906101000a900473ffffffffffffffffffffffffffffffffffffffff169050816000806101000a81548173ffffffffffffffffffffffffffffffffffffffff021916908373ffffffffffffffffffffffffffffffffffffffff1602179055508173ffffffffffffffffffffffffffffffffffffffff168173ffffffffffffffffffffffffffffffffffffffff167f8be0079c531659141344cd1fd0a4f28419497f9722a3daafe3b4186f6b6457e060405160405180910390a35050565b6000604051905090565b600080fd5b600080fd5b600073ffffffffffffffffffffffffffffffffffffffff82169050919050565b60006103588261032d565b9050919050565b6103688161034d565b811461037357600080fd5b50565b6000815190506103858161035f565b92915050565b600080604083850312156103a2576103a1610323565b5b60006103b085828601610376565b92505060206103c185828601610376565b9150509250929050565b6103d48161034d565b82525050565b60006020820190506103ef60008301846103cb565b92915050565b600060ff82169050919050565b61040b816103f5565b811461041657600080fd5b50565b60008151905061042881610402565b92915050565b60006020828403121561044457610443610323565b5b600061045284828501610419565b91505092915050565b600080fd5b600080fd5b6000601f19601f8301169050919050565b7f4e487b7100000000000000000000000000000000000000000000000000000000600052604160045260246000fd5b6104ae82610465565b810181811067ffffffffffffffff821117156104cd576104cc610476565b5b80604052505050565b60006104e0610319565b90506104ec82826104a5565b919050565b600067ffffffffffffffff82111561050c5761050b610476565b5b61051582610465565b9050602081019050919050565b60005b83811015610540578082015181840152602081019050610525565b60008484015250505050565b600061055f61055a846104f1565b6104d6565b90508281526020810184848401111561057b5761057a610460565b5b610586848285610522565b509392505050565b600082601f8301126105a3576105a261045b565b5b81516105b384826020860161054c565b91505092915050565b6000602082840312156105d2576105d1610323565b5b600082015167ffffffffffffffff8111156105f0576105ef610328565b5b6105fc8482850161058e565b91505092915050565b600081519050919050565b7f4e487b7100000000000000000000000000000000000000000000000000000000600052602260045260246000fd5b6000600282049050600182168061065757607f821691505b60208210810361066a57610669610610565b5b50919050565b60008190508160005260206000209050919050565b60006020601f8301049050919050565b600082821b905092915050565b6000600883026106d27fffffffffffffffffffffffffffffffffffffffffffffffffffffffffffffffff82610695565b6106dc8683610695565b95508019841693508086168417925050509392505050565b6000819050919050565b6000819050919050565b600061072361071e610719846106f4565b6106fe565b6106f4565b9050919050565b6000819050919050565b61073d83610708565b6107516107498261072a565b8484546106a2565b825550505050565b600090565b610766610759565b610771818484610734565b505050565b5b818110156107955761078a60008261075e565b600181019050610777565b5050565b601f8211156107da576107ab81610670565b6107b484610685565b810160208510156107c3578190505b6107d76107cf85610685565b830182610776565b50505b505050565b600082821c905092915050565b60006107fd600019846008026107df565b1980831691505092915050565b600061081683836107ec565b9150826002028217905092915050565b61082f82610605565b67ffffffffffffffff81111561084857610847610476565b5b610852825461063f565b61085d828285610799565b600060209050601f831160018114610890576000841561087e578287015190505b610888858261080a565b8655506108f0565b601f19841661089e86610670565b60005b828110156108c6578489015182556001820191506020850194506020810190506108a1565b868310156108e357848901516108df601f8916826107ec565b8355505b6001600288020188555050505b505050505050565b60805160a0516112c7610939600039600061038f0152600081816101e5015281816102b7015281816104f2015281816107a60152610a8d01526112c76000f3fe608060405234801561001057600080fd5b506004361061009d5760003560e01c80638da5cb5b116100665780638da5cb5b1461013257806395d89b4114610150578063e1e538cc1461016e578063f2fde38b146101a0578063fc0c546a146101bc5761009d565b8062f714ce146100a2578063313ce567146100be5780633f28e9fb146100dc578063673debf21461010c578063715018a614610128575b600080fd5b6100bc60048036038101906100b79190610c9b565b6101da565b005b6100c661038d565b6040516100d39190610cf7565b60405180910390f35b6100f660048036038101906100f19190610d12565b6103b1565b6040516101039190610d58565b60405180910390f35b61012660048036038101906101219190610d9f565b61061f565b005b6101306108d5565b005b61013a6108e9565b6040516101479190610dee565b60405180910390f35b610158610912565b6040516101659190610e99565b60405180910390f35b61018860048036038101906101839190610ebb565b6109a0565b60405161019793929190610f12565b60405180910390f35b6101ba60048036038101906101b59190610f49565b610a05565b005b6101c4610a8b565b6040516101d19190610fd5565b60405180910390f35b6101e2610aaf565b817f000000000000000000000000000000000000000000000000000000000000000073ffffffffffffffffffffffffffffffffffffffff166370a08231306040518263ffffffff1660e01b815260040161023c9190610dee565b602060405180830381865afa158015610259573d6000803e3d6000fd5b505050506040513d601f19601f8201168201806040525081019061027d9190611005565b10156102b5576040517f786e0a9900000000000000000000000000000000000000000000000000000000815260040160405180910390fd5b7f000000000000000000000000000000000000000000000000000000000000000073ffffffffffffffffffffffffffffffffffffffff1663a9059cbb82846040518363ffffffff1660e01b8152600401610310929190611032565b6020604051808303816000875af115801561032f573d6000803e3d6000fd5b505050506040513d601f19601f820116820180604052508101906103539190611087565b610389576040517f045c4b0200000000000000000000000000000000000000000000000000000000815260040160405180910390fd5b5050565b7f000000000000000000000000000000000000000000000000000000000000000081565b60008082036103ec576040517f911730ce00000000000000000000000000000000000000000000000000000000815260040160405180910390fd5b600260008154809291906103ff906110e3565b91905055506000600254334260405160200161041d93929190611194565b60405160208183030381529060405280519060200120905060405180606001604052808481526020013373ffffffffffffffffffffffffffffffffffffffff16815260200160001515815250600360008381526020019081526020016000206000820151816000015560208201518160010160006101000a81548173ffffffffffffffffffffffffffffffffffffffff021916908373ffffffffffffffffffffffffffffffffffffffff16021790555060408201518160010160146101000a81548160ff0219169083151502179055509050507f000000000000000000000000000000000000000000000000000000000000000073ffffffffffffffffffffffffffffffffffffffff166323b872dd3330866040518463ffffffff1660e01b815260040161054d939291906111d1565b6020604051808303816000875af115801561056c573d6000803e3d6000fd5b505050506040513d601f19601f820116820180604052508101906105909190611087565b6105c6576040517f045c4b0200000000000000000000000000000000000000000000000000000000815260040160405180910390fd5b3373ffffffffffffffffffffffffffffffffffffffff167f8faf7d9ee3c40e0e4d2b32ca323b8d9ebf98fc58961395caf2731889e0c37770828560405161060e929190611208565b60405180910390a280915050919050565b60006003600084815260200190815260200160002090508060010160009054906101000a900473ffffffffffffffffffffffffffffffffffffffff1673ffffffffffffffffffffffffffffffffffffffff163373ffffffffffffffffffffffffffffffffffffffff16141580156106c957506106996108e9565b73ffffffffffffffffffffffffffffffffffffffff163373ffffffffffffffffffffffffffffffffffffffff1614155b15610700576040517f82b4290000000000000000000000000000000000000000000000000000000000815260040160405180910390fd5b8060010160149054906101000a900460ff1615610749576040517fea2a9c7800000000000000000000000000000000000000000000000000000000815260040160405180910390fd5b6000816000015403610787576040517f911730ce00000000000000000000000000000000000000000000000000000000815260040160405180910390fd5b60018160010160146101000a81548160ff0219169083151502179055507f000000000000000000000000000000000000000000000000000000000000000073ffffffffffffffffffffffffffffffffffffffff1663a9059cbb8383600001546040518363ffffffff1660e01b8152600401610803929190611032565b6020604051808303816000875af1158015610822573d6000803e3d6000fd5b505050506040513d601f19601f820116820180604052508101906108469190611087565b61087c576040517f045c4b0200000000000000000000000000000000000000000000000000000000815260040160405180910390fd5b8173ffffffffffffffffffffffffffffffffffffffff167fcfac911f7032cadeaeb858507c2650c49ebf68367cc994d123f29731250773938483600001546040516108c8929190611208565b60405180910390a2505050565b6108dd610aaf565b6108e76000610b36565b565b60008060009054906101000a900473ffffffffffffffffffffffffffffffffffffffff16905090565b6001805461091f90611260565b80601f016020809104026020016040519081016040528092919081815260200182805461094b90611260565b80156109985780601f1061096d57610100808354040283529160200191610998565b820191906000526020600020905b81548152906001019060200180831161097b57829003601f168201915b505050505081565b6000806000806003600086815260200190815260200160002090508060010160009054906101000a900473ffffffffffffffffffffffffffffffffffffffff1681600001548260010160149054906101000a900460ff16935093509350509193909250565b610a0d610aaf565b600073ffffffffffffffffffffffffffffffffffffffff168173ffffffffffffffffffffffffffffffffffffffff1603610a7f5760006040517f1e4fbdf7000000000000000000000000000000000000000000000000000000008152600401610a769190610dee565b60405180910390fd5b610a8881610b36565b50565b7f000000000000000000000000000000000000000000000000000000000000000081565b610ab7610bfa565b73ffffffffffffffffffffffffffffffffffffffff16610ad56108e9565b73ffffffffffffffffffffffffffffffffffffffff1614610b3457610af8610bfa565b6040517f118cdaa7000000000000000000000000000000000000000000000000000000008152600401610b2b9190610dee565b60405180910390fd5b565b60008060009054906101000a900473ffffffffffffffffffffffffffffffffffffffff169050816000806101000a81548173ffffffffffffffffffffffffffffffffffffffff021916908373ffffffffffffffffffffffffffffffffffffffff1602179055508173ffffffffffffffffffffffffffffffffffffffff168173ffffffffffffffffffffffffffffffffffffffff167f8be0079c531659141344cd1fd0a4f28419497f9722a3daafe3b4186f6b6457e060405160405180910390a35050565b600033905090565b600080fd5b6000819050919050565b610c1a81610c07565b8114610c2557600080fd5b50565b600081359050610c3781610c11565b92915050565b600073ffffffffffffffffffffffffffffffffffffffff82169050919050565b6000610c6882610c3d565b9050919050565b610c7881610c5d565b8114610c8357600080fd5b50565b600081359050610c9581610c6f565b92915050565b60008060408385031215610cb257610cb1610c02565b5b6000610cc085828601610c28565b9250506020610cd185828601610c86565b9150509250929050565b600060ff82169050919050565b610cf181610cdb565b82525050565b6000602082019050610d0c6000830184610ce8565b92915050565b600060208284031215610d2857610d27610c02565b5b6000610d3684828501610c28565b91505092915050565b6000819050919050565b610d5281610d3f565b82525050565b6000602082019050610d6d6000830184610d49565b92915050565b610d7c81610d3f565b8114610d8757600080fd5b50565b600081359050610d9981610d73565b92915050565b60008060408385031215610db657610db5610c02565b5b6000610dc485828601610d8a565b9250506020610dd585828601610c86565b9150509250929050565b610de881610c5d565b82525050565b6000602082019050610e036000830184610ddf565b92915050565b600081519050919050565b600082825260208201905092915050565b60005b83811015610e43578082015181840152602081019050610e28565b60008484015250505050565b6000601f19601f8301169050919050565b6000610e6b82610e09565b610e758185610e14565b9350610e85818560208601610e25565b610e8e81610e4f565b840191505092915050565b60006020820190508181036000830152610eb38184610e60565b905092915050565b600060208284031215610ed157610ed0610c02565b5b6000610edf84828501610d8a565b91505092915050565b610ef181610c07565b82525050565b60008115159050919050565b610f0c81610ef7565b82525050565b6000606082019050610f276000830186610ddf565b610f346020830185610ee8565b610f416040830184610f03565b949350505050565b600060208284031215610f5f57610f5e610c02565b5b6000610f6d84828501610c86565b91505092915050565b6000819050919050565b6000610f9b610f96610f9184610c3d565b610f76565b610c3d565b9050919050565b6000610fad82610f80565b9050919050565b6000610fbf82610fa2565b9050919050565b610fcf81610fb4565b82525050565b6000602082019050610fea6000830184610fc6565b92915050565b600081519050610fff81610c11565b92915050565b60006020828403121561101b5761101a610c02565b5b600061102984828501610ff0565b91505092915050565b60006040820190506110476000830185610ddf565b6110546020830184610ee8565b9392505050565b61106481610ef7565b811461106f57600080fd5b50565b6000815190506110818161105b565b92915050565b60006020828403121561109d5761109c610c02565b5b60006110ab84828501611072565b91505092915050565b7f4e487b7100000000000000000000000000000000000000000000000000000000600052601160045260246000fd5b60006110ee82610c07565b91507fffffffffffffffffffffffffffffffffffffffffffffffffffffffffffffffff82036111205761111f6110b4565b5b600182019050919050565b6000819050919050565b61114661114182610c07565b61112b565b82525050565b60008160601b9050919050565b60006111648261114c565b9050919050565b600061117682611159565b9050919050565b61118e61118982610c5d565b61116b565b82525050565b60006111a08286611135565b6020820191506111b0828561117d565b6014820191506111c08284611135565b602082019150819050949350505050565b60006060820190506111e66000830186610ddf565b6111f36020830185610ddf565b6112006040830184610ee8565b949350505050565b600060408201905061121d6000830185610d49565b61122a6020830184610ee8565b9392505050565b7f4e487b7100000000000000000000000000000000000000000000000000000000600052602260045260246000fd5b6000600282049050600182168061127857607f821691505b60208210810361128b5761128a611231565b5b5091905056fea26469706673582212206b1c392427c800c42a4b5323517f9c2287db7bb3811d76611b7068d623f8f96864736f6c634300081c0033",
  "linkReferences": {},
  "deployedLinkReferences": {}
}