{
  "_format": "hh-sol-artifact-1",
  "contractName": "NativeV2Bounty",
  "sourceName": "src/NativeV2.sol",
  "abi": [
    {
      "inputs": [
        {
          "internalType": "address",
          "name": "initialOwner",
          "type": "address"
        }
      ],
      "stateMutability": "nonpayable",
      "type": "constructor"
    },
    {
      "inputs": [],
      "name": "BountyAlreadyPaid",
      "type": "error"
    },
    {
      "inputs": [],
      "name": "BountyAmountZero",
      "type": "error"
    },
    {
      "inputs": [],
      "name": "BountyNotFound",
      "type": "error"
    },
    {
      "inputs": [],
      "name": "IncorrectETHSent",
      "type": "error"
    },
    {
      "inputs": [],
      "name": "InsufficientBalance",
      "type": "error"
    },
    {
      "inputs": [],
      "name": "InvalidWinner",
      "type": "error"
    },
    {
      "inputs": [],
      "name": "NotCreator",
      "type": "error"
    },
    {
      "inputs": [
        {
          "internalType": "address",
          "name": "owner",
          "type": "address"
        }
      ],
      "name": "OwnableInvalidOwner",
      "type": "error"
    },
    {
      "inputs": [
        {
          "internalType": "address",
          "name": "account",
          "type": "address"
        }
      ],
      "name": "OwnableUnauthorizedAccount",
      "type": "error"
    },
    {
      "inputs": [],
      "name": "TransferFailed",
      "type": "error"
    },
    {
      "inputs": [],
      "name": "WithdrawToZeroAddress",
      "type": "error"
    },
    {
      "anonymous": false,
      "inputs": [
        {
          "indexed": false,
          "internalType": "bytes32",
          "name": "bountyId",
          "type": "bytes32"
        },
        {
          "indexed": false,
          "internalType": "address",
          "name": "creator",
          "type": "address"
        },
        {
          "indexed": false,
          "internalType": "uint256",
          "name": "amount",
          "type": "uint256"
        }
      ],
      "name": "BountyCreated",
      "type": "event"
    },
    {
      "anonymous": false,
      "inputs": [
        {
          "indexed": false,
          "internalType": "bytes32",
          "name": "bountyId",
          "type": "bytes32"
        },
        {
          "indexed": false,
          "internalType": "address",
          "name": "winner",
          "type": "address"
        },
        {
          "indexed": false,
          "internalType": "uint256",
          "name": "amount",
          "type": "uint256"
        }
      ],
      "name": "BountyPaid",
      "type": "event"
    },
    {
      "anonymous": false,
      "inputs": [
        {
          "indexed": true,
          "internalType": "address",
          "name": "previousOwner",
          "type": "address"
        },
        {
          "indexed": true,
          "internalType": "address",
          "name": "newOwner",
          "type": "address"
        }
      ],
      "name": "OwnershipTransferred",
      "type": "event"
    },
    {
      "inputs": [
        {
          "internalType": "uint256",
          "name": "amount",
          "type": "uint256"
        }
      ],
      "name": "createBounty",
      "outputs": [
        {
          "internalType": "bytes32",
          "name": "",
          "type": "bytes32"
        }
      ],
      "stateMutability": "payable",
      "type": "function"
    },
    {
      "inputs": [
        {
          "internalType": "bytes32",
          "name": "bountyId",
          "type": "bytes32"
        }
      ],
      "name": "getBountyInfo",
      "outputs": [
        {
          "internalType": "address",
          "name": "creator",
          "type": "address"
        },
        {
          "internalType": "uint256",
          "name": "amount",
          "type": "uint256"
        },
        {
          "internalType": "bool",
          "name": "isPaid",
          "type": "bool"
        }
      ],
      "stateMutability": "view",
      "type": "function"
    },
    {
      "inputs": [],
      "name": "owner",
      "outputs": [
        {
          "internalType": "address",
          "name": "",
          "type": "address"
        }
      ],
      "stateMutability": "view",
      "type": "function"
    },
    {
      "inputs": [
        {
          "internalType": "bytes32",
          "name": "bountyId",
          "type": "bytes32"
        },
        {
          "internalType": "address",
          "name": "winner",
          "type": "address"
        }
      ],
      "name": "payBounty",
      "outputs": [],
      "stateMutability": "nonpayable",
      "type": "function"
    },
    {
      "inputs": [],
      "name": "renounceOwnership",
      "outputs": [],
      "stateMutability": "nonpayable",
      "type": "function"
    },
    {
      "inputs": [
        {
          "internalType": "address",
          "name": "newOwner",
          "type": "address"
        }
      ],
      "name": "transferOwnership",
      "outputs": [],
      "stateMutability": "nonpayable",
      "type": "function"
    },
    {
      "inputs": [
        {
          "internalType": "uint256",
          "name": "amount",
          "type": "uint256"
        },
        {
          "internalType": "address",
          "name": "recipient",
          "type": "address"
        }
      ],
      "name": "withdraw",
      "outputs": [],
      "stateMutability": "nonpayable",
      "type": "function"
    }
  ],
  "bytecode": "0x608060405234801561001057600080fd5b506040516110ac3803806110ac833981810160405281019061003291906101e2565b80600073ffffffffffffffffffffffffffffffffffffffff168173ffffffffffffffffffffffffffffffffffffffff16036100a55760006040517f1e4fbdf700000000000000000000000000000000000000000000000000000000815260040161009c919061021e565b60405180910390fd5b6100b4816100bb60201b60201c565b5050610239565b60008060009054906101000a900473ffffffffffffffffffffffffffffffffffffffff169050816000806101000a81548173ffffffffffffffffffffffffffffffffffffffff021916908373ffffffffffffffffffffffffffffffffffffffff1602179055508173ffffffffffffffffffffffffffffffffffffffff168173ffffffffffffffffffffffffffffffffffffffff167f8be0079c531659141344cd1fd0a4f28419497f9722a3daafe3b4186f6b6457e060405160405180910390a35050565b600080fd5b600073ffffffffffffffffffffffffffffffffffffffff82169050919050565b60006101af82610184565b9050919050565b6101bf816101a4565b81146101ca57600080fd5b50565b6000815190506101dc816101b6565b92915050565b6000602082840312156101f8576101f761017f565b5b6000610206848285016101cd565b91505092915050565b610218816101a4565b82525050565b6000602082019050610233600083018461020f565b92915050565b610e64806102486000396000f3fe60806040526004361061006f5760003560e01c8063715018a61161004e578063715018a6146100f65780638da5cb5b1461010d578063e1e538cc14610138578063f2fde38b146101775761006f565b8062f714ce146100745780633f28e9fb1461009d578063673debf2146100cd575b600080fd5b34801561008057600080fd5b5061009b60048036038101906100969190610aa2565b6101a0565b005b6100b760048036038101906100b29190610ae2565b6102f0565b6040516100c49190610b28565b60405180910390f35b3480156100d957600080fd5b506100f460048036038101906100ef9190610b6f565b6104ac565b005b34801561010257600080fd5b5061010b61078e565b005b34801561011957600080fd5b506101226107a2565b60405161012f9190610bbe565b60405180910390f35b34801561014457600080fd5b5061015f600480360381019061015a9190610bd9565b6107cb565b60405161016e93929190610c30565b60405180910390f35b34801561018357600080fd5b5061019e60048036038101906101999190610c67565b610830565b005b6101a86108b6565b600073ffffffffffffffffffffffffffffffffffffffff168173ffffffffffffffffffffffffffffffffffffffff160361020e576040517f8c956f9000000000000000000000000000000000000000000000000000000000815260040160405180910390fd5b81471015610248576040517ff4d678b800000000000000000000000000000000000000000000000000000000815260040160405180910390fd5b60008173ffffffffffffffffffffffffffffffffffffffff168360405161026e90610cc5565b60006040518083038185875af1925050503d80600081146102ab576040519150601f19603f3d011682016040523d82523d6000602084013e6102b0565b606091505b50509050806102eb576040517f90b8ec1800000000000000000000000000000000000000000000000000000000815260040160405180910390fd5b505050565b600080820361032b576040517f029db38e00000000000000000000000000000000000000000000000000000000815260040160405180910390fd5b813414610364576040517f22790dad00000000000000000000000000000000000000000000000000000000815260040160405180910390fd5b6002600081548092919061037790610d09565b91905055506000600254334260405160200161039593929190610dba565b60405160208183030381529060405280519060200120905060405180606001604052808481526020013373ffffffffffffffffffffffffffffffffffffffff16815260200160001515815250600160008381526020019081526020016000206000820151816000015560208201518160010160006101000a81548173ffffffffffffffffffffffffffffffffffffffff021916908373ffffffffffffffffffffffffffffffffffffffff16021790555060408201518160010160146101000a81548160ff0219169083151502179055509050507f8faf7d9ee3c40e0e4d2b32ca323b8d9ebf98fc58961395caf2731889e0c3777081338560405161049b93929190610df7565b60405180910390a180915050919050565b600073ffffffffffffffffffffffffffffffffffffffff168173ffffffffffffffffffffffffffffffffffffffff1603610512576040517f93a5f3c700000000000000000000000000000000000000000000000000000000815260040160405180910390fd5b6000600160008481526020019081526020016000209050600073ffffffffffffffffffffffffffffffffffffffff168160010160009054906101000a900473ffffffffffffffffffffffffffffffffffffffff1673ffffffffffffffffffffffffffffffffffffffff16036105b3576040517f93395f9c00000000000000000000000000000000000000000000000000000000815260040160405180910390fd5b3373ffffffffffffffffffffffffffffffffffffffff168160010160009054906101000a900473ffffffffffffffffffffffffffffffffffffffff1673ffffffffffffffffffffffffffffffffffffffff161461063c576040517f93687c0b00000000000000000000000000000000000000000000000000000000815260040160405180910390fd5b8060010160149054906101000a900460ff1615610685576040517fea2a9c7800000000000000000000000000000000000000000000000000000000815260040160405180910390fd5b60018160010160146101000a81548160ff02191690831515021790555060008273ffffffffffffffffffffffffffffffffffffffff1682600001546040516106cc90610cc5565b60006040518083038185875af1925050503d8060008114610709576040519150601f19603f3d011682016040523d82523d6000602084013e61070e565b606091505b5050905080610749576040517f90b8ec1800000000000000000000000000000000000000000000000000000000815260040160405180910390fd5b7fcfac911f7032cadeaeb858507c2650c49ebf68367cc994d123f29731250773938484846000015460405161078093929190610df7565b60405180910390a150505050565b6107966108b6565b6107a0600061093d565b565b60008060009054906101000a900473ffffffffffffffffffffffffffffffffffffffff16905090565b6000806000806001600086815260200190815260200160002090508060010160009054906101000a900473ffffffffffffffffffffffffffffffffffffffff1681600001548260010160149054906101000a900460ff16935093509350509193909250565b6108386108b6565b600073ffffffffffffffffffffffffffffffffffffffff168173ffffffffffffffffffffffffffffffffffffffff16036108aa5760006040517f1e4fbdf70000000000000000000000000000000000000000000000000000000081526004016108a19190610bbe565b60405180910390fd5b6108b38161093d565b50565b6108be610a01565b73ffffffffffffffffffffffffffffffffffffffff166108dc6107a2565b73ffffffffffffffffffffffffffffffffffffffff161461093b576108ff610a01565b6040517f118cdaa70000000000000000000000000000000000000000000000000000000081526004016109329190610bbe565b60405180910390fd5b565b60008060009054906101000a900473ffffffffffffffffffffffffffffffffffffffff169050816000806101000a81548173ffffffffffffffffffffffffffffffffffffffff021916908373ffffffffffffffffffffffffffffffffffffffff1602179055508173ffffffffffffffffffffffffffffffffffffffff168173ffffffffffffffffffffffffffffffffffffffff167f8be0079c531659141344cd1fd0a4f28419497f9722a3daafe3b4186f6b6457e060405160405180910390a35050565b600033905090565b600080fd5b6000819050919050565b610a2181610a0e565b8114610a2c57600080fd5b50565b600081359050610a3e81610a18565b92915050565b600073ffffffffffffffffffffffffffffffffffffffff82169050919050565b6000610a6f82610a44565b9050919050565b610a7f81610a64565b8114610a8a57600080fd5b50565b600081359050610a9c81610a76565b92915050565b60008060408385031215610ab957610ab8610a09565b5b6000610ac785828601610a2f565b9250506020610ad885828601610a8d565b9150509250929050565b600060208284031215610af857610af7610a09565b5b6000610b0684828501610a2f565b91505092915050565b6000819050919050565b610b2281610b0f565b82525050565b6000602082019050610b3d6000830184610b19565b92915050565b610b4c81610b0f565b8114610b5757600080fd5b50565b600081359050610b6981610b43565b92915050565b60008060408385031215610b8657610b85610a09565b5b6000610b9485828601610b5a565b9250506020610ba585828601610a8d565b9150509250929050565b610bb881610a64565b82525050565b6000602082019050610bd36000830184610baf565b92915050565b600060208284031215610bef57610bee610a09565b5b6000610bfd84828501610b5a565b91505092915050565b610c0f81610a0e565b82525050565b60008115159050919050565b610c2a81610c15565b82525050565b6000606082019050610c456000830186610baf565b610c526020830185610c06565b610c5f6040830184610c21565b949350505050565b600060208284031215610c7d57610c7c610a09565b5b6000610c8b84828501610a8d565b91505092915050565b600081905092915050565b50565b6000610caf600083610c94565b9150610cba82610c9f565b600082019050919050565b6000610cd082610ca2565b9150819050919050565b7f4e487b7100000000000000000000000000000000000000000000000000000000600052601160045260246000fd5b6000610d1482610a0e565b91507fffffffffffffffffffffffffffffffffffffffffffffffffffffffffffffffff8203610d4657610d45610cda565b5b600182019050919050565b6000819050919050565b610d6c610d6782610a0e565b610d51565b82525050565b60008160601b9050919050565b6000610d8a82610d72565b9050919050565b6000610d9c82610d7f565b9050919050565b610db4610daf82610a64565b610d91565b82525050565b6000610dc68286610d5b565b602082019150610dd68285610da3565b601482019150610de68284610d5b565b602082019150819050949350505050565b6000606082019050610e0c6000830186610b19565b610e196020830185610baf565b610e266040830184610c06565b94935050505056fea264697066735822122053666f5406f79b8bb18746843708c881b18fa49cc39ecf21590fe43644ab1bc764736f6c634300081c0033",
  "linkReferences": {},
  "deployedLinkReferences": {}
}