{
  "_format": "hh-sol-artifact-1",
  "contractName": "NativeV1Bounty",
  "sourceName": "src/NativeV1.sol",
  "abi": [
    {
      "inputs": [
        {
          "internalType": "address",
          "name": "initialOwner",
          "type": "address"
        },
        {
          "internalType": "address",
          "name": "_usdcToken",
          "type": "address"
        }
      ],
      "stateMutability": "nonpayable",
      "type": "constructor"
    },
    {
      "inputs": [],
      "name": "BountyAlreadyPaid",
      "type": "error"
    },
    {
      "inputs": [],
      "name": "BountyNotFound",
      "type": "error"
    },
    {
      "inputs": [],
      "name": "ETHTransferFailed",
      "type": "error"
    },
    {
      "inputs": [],
      "name": "IncorrectETHAmount",
      "type": "error"
    },
    {
      "inputs": [],
      "name": "InsufficientETHBalance",
      "type": "error"
    },
    {
      "inputs": [],
      "name": "InsufficientUSDCBalance",
      "type": "error"
    },
    {
      "inputs": [],
      "name": "InvalidBountyAmount",
      "type": "error"
    },
    {
      "inputs": [],
      "name": "InvalidTokenType",
      "type": "error"
    },
    {
      "inputs": [],
      "name": "InvalidUSDCAddress",
      "type": "error"
    },
    {
      "inputs": [],
      "name": "InvalidWinner",
      "type": "error"
    },
    {
      "inputs": [],
      "name": "NotBountyCreator",
      "type": "error"
    },
    {
      "inputs": [
        {
          "internalType": "address",
          "name": "owner",
          "type": "address"
        }
      ],
      "name": "OwnableInvalidOwner",
      "type": "error"
    },
    {
      "inputs": [
        {
          "internalType": "address",
          "name": "account",
          "type": "address"
        }
      ],
      "name": "OwnableUnauthorizedAccount",
      "type": "error"
    },
    {
      "inputs": [],
      "name": "USDCTransferFailed",
      "type": "error"
    },
    {
      "inputs": [],
      "name": "UnexpectedETH",
      "type": "error"
    },
    {
      "inputs": [],
      "name": "WithdrawToZeroAddress",
      "type": "error"
    },
    {
      "anonymous": false,
      "inputs": [
        {
          "indexed": false,
          "internalType": "bytes32",
          "name": "bountyId",
          "type": "bytes32"
        },
        {
          "indexed": false,
          "internalType": "address",
          "name": "creator",
          "type": "address"
        },
        {
          "indexed": false,
          "internalType": "uint256",
          "name": "amount",
          "type": "uint256"
        },
        {
          "indexed": false,
          "internalType": "enum NativeV1Bounty.TokenType",
          "name": "tokenType",
          "type": "uint8"
        }
      ],
      "name": "BountyCreated",
      "type": "event"
    },
    {
      "anonymous": false,
      "inputs": [
        {
          "indexed": false,
          "internalType": "bytes32",
          "name": "bountyId",
          "type": "bytes32"
        },
        {
          "indexed": false,
          "internalType": "address",
          "name": "winner",
          "type": "address"
        },
        {
          "indexed": false,
          "internalType": "uint256",
          "name": "amount",
          "type": "uint256"
        },
        {
          "indexed": false,
          "internalType": "enum NativeV1Bounty.TokenType",
          "name": "tokenType",
          "type": "uint8"
        }
      ],
      "name": "BountyPaid",
      "type": "event"
    },
    {
      "anonymous": false,
      "inputs": [
        {
          "indexed": true,
          "internalType": "address",
          "name": "previousOwner",
          "type": "address"
        },
        {
          "indexed": true,
          "internalType": "address",
          "name": "newOwner",
          "type": "address"
        }
      ],
      "name": "OwnershipTransferred",
      "type": "event"
    },
    {
      "inputs": [
        {
          "internalType": "enum NativeV1Bounty.TokenType",
          "name": "tokenType",
          "type": "uint8"
        },
        {
          "internalType": "uint256",
          "name": "amount",
          "type": "uint256"
        }
      ],
      "name": "createBounty",
      "outputs": [
        {
          "internalType": "bytes32",
          "name": "",
          "type": "bytes32"
        }
      ],
      "stateMutability": "payable",
      "type": "function"
    },
    {
      "inputs": [
        {
          "internalType": "bytes32",
          "name": "bountyId",
          "type": "bytes32"
        }
      ],
      "name": "getBountyInfo",
      "outputs": [
        {
          "internalType": "address",
          "name": "creator",
          "type": "address"
        },
        {
          "internalType": "uint256",
          "name": "amount",
          "type": "uint256"
        },
        {
          "internalType": "enum NativeV1Bounty.TokenType",
          "name": "tokenType",
          "type": "uint8"
        },
        {
          "internalType": "bool",
          "name": "isPaid",
          "type": "bool"
        }
      ],
      "stateMutability": "view",
      "type": "function"
    },
    {
      "inputs": [],
      "name": "owner",
      "outputs": [
        {
          "internalType": "address",
          "name": "",
          "type": "address"
        }
      ],
      "stateMutability": "view",
      "type": "function"
    },
    {
      "inputs": [
        {
          "internalType": "bytes32",
          "name": "bountyId",
          "type": "bytes32"
        },
        {
          "internalType": "address",
          "name": "winner",
          "type": "address"
        }
      ],
      "name": "payBounty",
      "outputs": [],
      "stateMutability": "nonpayable",
      "type": "function"
    },
    {
      "inputs": [],
      "name": "renounceOwnership",
      "outputs": [],
      "stateMutability": "nonpayable",
      "type": "function"
    },
    {
      "inputs": [
        {
          "internalType": "address",
          "name": "newOwner",
          "type": "address"
        }
      ],
      "name": "transferOwnership",
      "outputs": [],
      "stateMutability": "nonpayable",
      "type": "function"
    },
    {
      "inputs": [],
      "name": "usdcToken",
      "outputs": [
        {
          "internalType": "contract IERC20",
          "name": "",
          "type": "address"
        }
      ],
      "stateMutability": "view",
      "type": "function"
    },
    {
      "inputs": [
        {
          "internalType": "uint256",
          "name": "amount",
          "type": "uint256"
        },
        {
          "internalType": "enum NativeV1Bounty.TokenType",
          "name": "tokenType",
          "type": "uint8"
        },
        {
          "internalType": "address",
          "name": "recipient",
          "type": "address"
        }
      ],
      "name": "withdraw",
      "outputs": [],
      "stateMutability": "nonpayable",
      "type": "function"
    }
  ],
  "bytecode": "0x60a060405234801561001057600080fd5b5060405161196c38038061196c8339818101604052810190610032919061027d565b81600073ffffffffffffffffffffffffffffffffffffffff168173ffffffffffffffffffffffffffffffffffffffff16036100a55760006040517f1e4fbdf700000000000000000000000000000000000000000000000000000000815260040161009c91906102cc565b60405180910390fd5b6100b48161015660201b60201c565b50600073ffffffffffffffffffffffffffffffffffffffff168173ffffffffffffffffffffffffffffffffffffffff160361011b576040517f3ec08db000000000000000000000000000000000000000000000000000000000815260040160405180910390fd5b8073ffffffffffffffffffffffffffffffffffffffff1660808173ffffffffffffffffffffffffffffffffffffffff168152505050506102e7565b60008060009054906101000a900473ffffffffffffffffffffffffffffffffffffffff169050816000806101000a81548173ffffffffffffffffffffffffffffffffffffffff021916908373ffffffffffffffffffffffffffffffffffffffff1602179055508173ffffffffffffffffffffffffffffffffffffffff168173ffffffffffffffffffffffffffffffffffffffff167f8be0079c531659141344cd1fd0a4f28419497f9722a3daafe3b4186f6b6457e060405160405180910390a35050565b600080fd5b600073ffffffffffffffffffffffffffffffffffffffff82169050919050565b600061024a8261021f565b9050919050565b61025a8161023f565b811461026557600080fd5b50565b60008151905061027781610251565b92915050565b600080604083850312156102945761029361021a565b5b60006102a285828601610268565b92505060206102b385828601610268565b9150509250929050565b6102c68161023f565b82525050565b60006020820190506102e160008301846102bd565b92915050565b60805161164e61031e600039600081816101da015281816104de015281816107a0015281816108720152610c2e015261164e6000f3fe60806040526004361061007b5760003560e01c80638da5cb5b1161004e5780638da5cb5b14610114578063e1e538cc1461013f578063f2fde38b1461017f578063f8c8dda6146101a85761007b565b806311eac85514610080578063673debf2146100ab578063715018a6146100d4578063839ffceb146100eb575b600080fd5b34801561008c57600080fd5b506100956101d8565b6040516100a2919061101f565b60405180910390f35b3480156100b757600080fd5b506100d260048036038101906100cd91906110b3565b6101fc565b005b3480156100e057600080fd5b506100e961060c565b005b3480156100f757600080fd5b50610112600480360381019061010d919061114e565b610620565b005b34801561012057600080fd5b5061012961094a565b60405161013691906111b0565b60405180910390f35b34801561014b57600080fd5b50610166600480360381019061016191906111cb565b610973565b6040516101769493929190611299565b60405180910390f35b34801561018b57600080fd5b506101a660048036038101906101a191906112de565b6109ee565b005b6101c260048036038101906101bd919061130b565b610a74565b6040516101cf919061135a565b60405180910390f35b7f000000000000000000000000000000000000000000000000000000000000000081565b600073ffffffffffffffffffffffffffffffffffffffff168173ffffffffffffffffffffffffffffffffffffffff1603610262576040517f93a5f3c700000000000000000000000000000000000000000000000000000000815260040160405180910390fd5b6000600160008481526020019081526020016000209050600073ffffffffffffffffffffffffffffffffffffffff168160010160009054906101000a900473ffffffffffffffffffffffffffffffffffffffff1673ffffffffffffffffffffffffffffffffffffffff1603610303576040517f93395f9c00000000000000000000000000000000000000000000000000000000815260040160405180910390fd5b3373ffffffffffffffffffffffffffffffffffffffff168160010160009054906101000a900473ffffffffffffffffffffffffffffffffffffffff1673ffffffffffffffffffffffffffffffffffffffff161461038c576040517fc863c98200000000000000000000000000000000000000000000000000000000815260040160405180910390fd5b8060010160159054906101000a900460ff16156103d5576040517fea2a9c7800000000000000000000000000000000000000000000000000000000815260040160405180910390fd5b60018160010160156101000a81548160ff0219169083151502179055506000600181111561040657610405611207565b5b8160010160149054906101000a900460ff16600181111561042a57610429611207565b5b036104dc5760008273ffffffffffffffffffffffffffffffffffffffff168260000154604051610459906113a6565b60006040518083038185875af1925050503d8060008114610496576040519150601f19603f3d011682016040523d82523d6000602084013e61049b565b606091505b50509050806104d6576040517fb12d13eb00000000000000000000000000000000000000000000000000000000815260040160405180910390fd5b506105b5565b7f000000000000000000000000000000000000000000000000000000000000000073ffffffffffffffffffffffffffffffffffffffff1663a9059cbb8383600001546040518363ffffffff1660e01b815260040161053b9291906113bb565b6020604051808303816000875af115801561055a573d6000803e3d6000fd5b505050506040513d601f19601f8201168201806040525081019061057e9190611410565b6105b4576040517fa55b288700000000000000000000000000000000000000000000000000000000815260040160405180910390fd5b5b7f5a1f5898968a694a3c5c7a7891af0db00bbe71d90b2bfb1f26573b0b5023c6af838383600001548460010160149054906101000a900460ff166040516105ff949392919061143d565b60405180910390a1505050565b610614610e4d565b61061e6000610ed4565b565b610628610e4d565b600073ffffffffffffffffffffffffffffffffffffffff168173ffffffffffffffffffffffffffffffffffffffff160361068e576040517f8c956f9000000000000000000000000000000000000000000000000000000000815260040160405180910390fd5b600060018111156106a2576106a1611207565b5b8260018111156106b5576106b4611207565b5b0361079d57824710156106f4576040517fbbb20aae00000000000000000000000000000000000000000000000000000000815260040160405180910390fd5b60008173ffffffffffffffffffffffffffffffffffffffff168460405161071a906113a6565b60006040518083038185875af1925050503d8060008114610757576040519150601f19603f3d011682016040523d82523d6000602084013e61075c565b606091505b5050905080610797576040517fb12d13eb00000000000000000000000000000000000000000000000000000000815260040160405180910390fd5b50610945565b827f000000000000000000000000000000000000000000000000000000000000000073ffffffffffffffffffffffffffffffffffffffff166370a08231306040518263ffffffff1660e01b81526004016107f791906111b0565b602060405180830381865afa158015610814573d6000803e3d6000fd5b505050506040513d601f19601f820116820180604052508101906108389190611497565b1015610870576040517f3044bc7400000000000000000000000000000000000000000000000000000000815260040160405180910390fd5b7f000000000000000000000000000000000000000000000000000000000000000073ffffffffffffffffffffffffffffffffffffffff1663a9059cbb82856040518363ffffffff1660e01b81526004016108cb9291906113bb565b6020604051808303816000875af11580156108ea573d6000803e3d6000fd5b505050506040513d601f19601f8201168201806040525081019061090e9190611410565b610944576040517fa55b288700000000000000000000000000000000000000000000000000000000815260040160405180910390fd5b5b505050565b60008060009054906101000a900473ffffffffffffffffffffffffffffffffffffffff16905090565b60008060008060006001600087815260200190815260200160002090508060010160009054906101000a900473ffffffffffffffffffffffffffffffffffffffff1681600001548260010160149054906101000a900460ff168360010160159054906101000a900460ff169450945094509450509193509193565b6109f6610e4d565b600073ffffffffffffffffffffffffffffffffffffffff168173ffffffffffffffffffffffffffffffffffffffff1603610a685760006040517f1e4fbdf7000000000000000000000000000000000000000000000000000000008152600401610a5f91906111b0565b60405180910390fd5b610a7181610ed4565b50565b6000808203610aaf576040517f911730ce00000000000000000000000000000000000000000000000000000000815260040160405180910390fd5b60006001811115610ac357610ac2611207565b5b836001811115610ad657610ad5611207565b5b14158015610b085750600180811115610af257610af1611207565b5b836001811115610b0557610b04611207565b5b14155b15610b3f576040517fa1e9dd9d00000000000000000000000000000000000000000000000000000000815260040160405180910390fd5b600060026000815480929190610b54906114f3565b91905055506002543342604051602001610b70939291906115a4565b60405160208183030381529060405280519060200120905060006001811115610b9c57610b9b611207565b5b846001811115610baf57610bae611207565b5b03610bf257823414610bed576040517f201c04ab00000000000000000000000000000000000000000000000000000000815260040160405180910390fd5b610d03565b60003414610c2c576040517f4012205500000000000000000000000000000000000000000000000000000000815260040160405180910390fd5b7f000000000000000000000000000000000000000000000000000000000000000073ffffffffffffffffffffffffffffffffffffffff166323b872dd3330866040518463ffffffff1660e01b8152600401610c89939291906115e1565b6020604051808303816000875af1158015610ca8573d6000803e3d6000fd5b505050506040513d601f19601f82011682018060405250810190610ccc9190611410565b610d02576040517fa55b288700000000000000000000000000000000000000000000000000000000815260040160405180910390fd5b5b60405180608001604052808481526020013373ffffffffffffffffffffffffffffffffffffffff168152602001856001811115610d4357610d42611207565b5b815260200160001515815250600160008381526020019081526020016000206000820151816000015560208201518160010160006101000a81548173ffffffffffffffffffffffffffffffffffffffff021916908373ffffffffffffffffffffffffffffffffffffffff16021790555060408201518160010160146101000a81548160ff02191690836001811115610dde57610ddd611207565b5b021790555060608201518160010160156101000a81548160ff0219169083151502179055509050507f88c038c1efff96fb5d6735e9838697f19c84ea5c5bc110d160c5de70be0e90f381338587604051610e3b949392919061143d565b60405180910390a18091505092915050565b610e55610f98565b73ffffffffffffffffffffffffffffffffffffffff16610e7361094a565b73ffffffffffffffffffffffffffffffffffffffff1614610ed257610e96610f98565b6040517f118cdaa7000000000000000000000000000000000000000000000000000000008152600401610ec991906111b0565b60405180910390fd5b565b60008060009054906101000a900473ffffffffffffffffffffffffffffffffffffffff169050816000806101000a81548173ffffffffffffffffffffffffffffffffffffffff021916908373ffffffffffffffffffffffffffffffffffffffff1602179055508173ffffffffffffffffffffffffffffffffffffffff168173ffffffffffffffffffffffffffffffffffffffff167f8be0079c531659141344cd1fd0a4f28419497f9722a3daafe3b4186f6b6457e060405160405180910390a35050565b600033905090565b600073ffffffffffffffffffffffffffffffffffffffff82169050919050565b6000819050919050565b6000610fe5610fe0610fdb84610fa0565b610fc0565b610fa0565b9050919050565b6000610ff782610fca565b9050919050565b600061100982610fec565b9050919050565b61101981610ffe565b82525050565b60006020820190506110346000830184611010565b92915050565b600080fd5b6000819050919050565b6110528161103f565b811461105d57600080fd5b50565b60008135905061106f81611049565b92915050565b600061108082610fa0565b9050919050565b61109081611075565b811461109b57600080fd5b50565b6000813590506110ad81611087565b92915050565b600080604083850312156110ca576110c961103a565b5b60006110d885828601611060565b92505060206110e98582860161109e565b9150509250929050565b6000819050919050565b611106816110f3565b811461111157600080fd5b50565b600081359050611123816110fd565b92915050565b6002811061113657600080fd5b50565b60008135905061114881611129565b92915050565b6000806000606084860312156111675761116661103a565b5b600061117586828701611114565b935050602061118686828701611139565b92505060406111978682870161109e565b9150509250925092565b6111aa81611075565b82525050565b60006020820190506111c560008301846111a1565b92915050565b6000602082840312156111e1576111e061103a565b5b60006111ef84828501611060565b91505092915050565b611201816110f3565b82525050565b7f4e487b7100000000000000000000000000000000000000000000000000000000600052602160045260246000fd5b6002811061124757611246611207565b5b50565b600081905061125882611236565b919050565b60006112688261124a565b9050919050565b6112788161125d565b82525050565b60008115159050919050565b6112938161127e565b82525050565b60006080820190506112ae60008301876111a1565b6112bb60208301866111f8565b6112c8604083018561126f565b6112d5606083018461128a565b95945050505050565b6000602082840312156112f4576112f361103a565b5b60006113028482850161109e565b91505092915050565b600080604083850312156113225761132161103a565b5b600061133085828601611139565b925050602061134185828601611114565b9150509250929050565b6113548161103f565b82525050565b600060208201905061136f600083018461134b565b92915050565b600081905092915050565b50565b6000611390600083611375565b915061139b82611380565b600082019050919050565b60006113b182611383565b9150819050919050565b60006040820190506113d060008301856111a1565b6113dd60208301846111f8565b9392505050565b6113ed8161127e565b81146113f857600080fd5b50565b60008151905061140a816113e4565b92915050565b6000602082840312156114265761142561103a565b5b6000611434848285016113fb565b91505092915050565b6000608082019050611452600083018761134b565b61145f60208301866111a1565b61146c60408301856111f8565b611479606083018461126f565b95945050505050565b600081519050611491816110fd565b92915050565b6000602082840312156114ad576114ac61103a565b5b60006114bb84828501611482565b91505092915050565b7f4e487b7100000000000000000000000000000000000000000000000000000000600052601160045260246000fd5b60006114fe826110f3565b91507fffffffffffffffffffffffffffffffffffffffffffffffffffffffffffffffff82036115305761152f6114c4565b5b600182019050919050565b6000819050919050565b611556611551826110f3565b61153b565b82525050565b60008160601b9050919050565b60006115748261155c565b9050919050565b600061158682611569565b9050919050565b61159e61159982611075565b61157b565b82525050565b60006115b08286611545565b6020820191506115c0828561158d565b6014820191506115d08284611545565b602082019150819050949350505050565b60006060820190506115f660008301866111a1565b61160360208301856111a1565b61161060408301846111f8565b94935050505056fea264697066735822122006f0c57626f66aa8ab4b7e6e2462f680f75adf58d78cfebcb75350a336a1ce9964736f6c634300081c0033",
  "linkReferences": {},
  "deployedLinkReferences": {}
}